:100000000C9434000C943E000C943E000C943E0082
:100010000C943E000C943E000C943E000C943E0068
:100020000C943E000C943E000C943E000C943E0058
:100030000C943E000C943E000C943E000C943E0048
:100040000C943E000C943E000C943E000C943E0038
:100050000C943E000C943E000C943E000C943E0028
:100060000C943E000C943E0011241FBECFEFD8E04C
:10007000DEBFCDBF0E9440000C9466000C940000CF
:10008000209A50985498589A5C9A40E951E04899BF
:1000900010C04C990EC0289A20E030E0CA010197A8
:1000A000F1F72F5F3F4F87E0203D3807B9F7489BB6
:1000B000F0CF289820E030E0CA010197F1F72F5FD8
:1000C0003F4F87E0203D3807B9F7E1CFF894FFCFE5
:00000001FF
